{
  "_format": "hh-sol-artifact-1",
  "contractName": "CyberpunkRobotNFT",
  "sourceName": "contracts/cyberpunkrobot.sol",
  "abi": [
    {
      "inputs": [],
      "stateMutability": "nonpayable",
      "type": "constructor"
    },
    {
      "anonymous": false,
      "inputs": [
        {
          "indexed": true,
          "internalType": "address",
          "name": "owner",
          "type": "address"
        },
        {
          "indexed": true,
          "internalType": "address",
          "name": "approved",
          "type": "address"
        },
        {
          "indexed": true,
          "internalType": "uint256",
          "name": "tokenId",
          "type": "uint256"
        }
      ],
      "name": "Approval",
      "type": "event"
    },
    {
      "anonymous": false,
      "inputs": [
        {
          "indexed": true,
          "internalType": "address",
          "name": "owner",
          "type": "address"
        },
        {
          "indexed": true,
          "internalType": "address",
          "name": "operator",
          "type": "address"
        },
        {
          "indexed": false,
          "internalType": "bool",
          "name": "approved",
          "type": "bool"
        }
      ],
      "name": "ApprovalForAll",
      "type": "event"
    },
    {
      "anonymous": false,
      "inputs": [
        {
          "indexed": true,
          "internalType": "address",
          "name": "previousOwner",
          "type": "address"
        },
        {
          "indexed": true,
          "internalType": "address",
          "name": "newOwner",
          "type": "address"
        }
      ],
      "name": "OwnershipTransferred",
      "type": "event"
    },
    {
      "anonymous": false,
      "inputs": [
        {
          "indexed": true,
          "internalType": "address",
          "name": "from",
          "type": "address"
        },
        {
          "indexed": true,
          "internalType": "address",
          "name": "to",
          "type": "address"
        },
        {
          "indexed": true,
          "internalType": "uint256",
          "name": "tokenId",
          "type": "uint256"
        }
      ],
      "name": "Transfer",
      "type": "event"
    },
    {
      "inputs": [
        {
          "internalType": "address",
          "name": "to",
          "type": "address"
        },
        {
          "internalType": "uint256",
          "name": "tokenId",
          "type": "uint256"
        }
      ],
      "name": "approve",
      "outputs": [],
      "stateMutability": "nonpayable",
      "type": "function"
    },
    {
      "inputs": [
        {
          "internalType": "address",
          "name": "owner",
          "type": "address"
        }
      ],
      "name": "balanceOf",
      "outputs": [
        {
          "internalType": "uint256",
          "name": "",
          "type": "uint256"
        }
      ],
      "stateMutability": "view",
      "type": "function"
    },
    {
      "inputs": [
        {
          "internalType": "uint256",
          "name": "tokenId",
          "type": "uint256"
        }
      ],
      "name": "getApproved",
      "outputs": [
        {
          "internalType": "address",
          "name": "",
          "type": "address"
        }
      ],
      "stateMutability": "view",
      "type": "function"
    },
    {
      "inputs": [
        {
          "internalType": "address",
          "name": "owner",
          "type": "address"
        },
        {
          "internalType": "address",
          "name": "operator",
          "type": "address"
        }
      ],
      "name": "isApprovedForAll",
      "outputs": [
        {
          "internalType": "bool",
          "name": "",
          "type": "bool"
        }
      ],
      "stateMutability": "view",
      "type": "function"
    },
    {
      "inputs": [],
      "name": "name",
      "outputs": [
        {
          "internalType": "string",
          "name": "",
          "type": "string"
        }
      ],
      "stateMutability": "view",
      "type": "function"
    },
    {
      "inputs": [],
      "name": "owner",
      "outputs": [
        {
          "internalType": "address",
          "name": "",
          "type": "address"
        }
      ],
      "stateMutability": "view",
      "type": "function"
    },
    {
      "inputs": [
        {
          "internalType": "uint256",
          "name": "tokenId",
          "type": "uint256"
        }
      ],
      "name": "ownerOf",
      "outputs": [
        {
          "internalType": "address",
          "name": "",
          "type": "address"
        }
      ],
      "stateMutability": "view",
      "type": "function"
    },
    {
      "inputs": [],
      "name": "renounceOwnership",
      "outputs": [],
      "stateMutability": "nonpayable",
      "type": "function"
    },
    {
      "inputs": [
        {
          "internalType": "address",
          "name": "to",
          "type": "address"
        }
      ],
      "name": "safeMint",
      "outputs": [],
      "stateMutability": "nonpayable",
      "type": "function"
    },
    {
      "inputs": [
        {
          "internalType": "address",
          "name": "from",
          "type": "address"
        },
        {
          "internalType": "address",
          "name": "to",
          "type": "address"
        },
        {
          "internalType": "uint256",
          "name": "tokenId",
          "type": "uint256"
        }
      ],
      "name": "safeTransferFrom",
      "outputs": [],
      "stateMutability": "nonpayable",
      "type": "function"
    },
    {
      "inputs": [
        {
          "internalType": "address",
          "name": "from",
          "type": "address"
        },
        {
          "internalType": "address",
          "name": "to",
          "type": "address"
        },
        {
          "internalType": "uint256",
          "name": "tokenId",
          "type": "uint256"
        },
        {
          "internalType": "bytes",
          "name": "data",
          "type": "bytes"
        }
      ],
      "name": "safeTransferFrom",
      "outputs": [],
      "stateMutability": "nonpayable",
      "type": "function"
    },
    {
      "inputs": [
        {
          "internalType": "address",
          "name": "operator",
          "type": "address"
        },
        {
          "internalType": "bool",
          "name": "approved",
          "type": "bool"
        }
      ],
      "name": "setApprovalForAll",
      "outputs": [],
      "stateMutability": "nonpayable",
      "type": "function"
    },
    {
      "inputs": [
        {
          "internalType": "string",
          "name": "newBaseURI",
          "type": "string"
        }
      ],
      "name": "setBaseURI",
      "outputs": [],
      "stateMutability": "nonpayable",
      "type": "function"
    },
    {
      "inputs": [
        {
          "internalType": "bytes4",
          "name": "interfaceId",
          "type": "bytes4"
        }
      ],
      "name": "supportsInterface",
      "outputs": [
        {
          "internalType": "bool",
          "name": "",
          "type": "bool"
        }
      ],
      "stateMutability": "view",
      "type": "function"
    },
    {
      "inputs": [],
      "name": "symbol",
      "outputs": [
        {
          "internalType": "string",
          "name": "",
          "type": "string"
        }
      ],
      "stateMutability": "view",
      "type": "function"
    },
    {
      "inputs": [
        {
          "internalType": "uint256",
          "name": "tokenId",
          "type": "uint256"
        }
      ],
      "name": "tokenURI",
      "outputs": [
        {
          "internalType": "string",
          "name": "",
          "type": "string"
        }
      ],
      "stateMutability": "view",
      "type": "function"
    },
    {
      "inputs": [],
      "name": "totalSupply",
      "outputs": [
        {
          "internalType": "uint256",
          "name": "",
          "type": "uint256"
        }
      ],
      "stateMutability": "view",
      "type": "function"
    },
    {
      "inputs": [
        {
          "internalType": "address",
          "name": "from",
          "type": "address"
        },
        {
          "internalType": "address",
          "name": "to",
          "type": "address"
        },
        {
          "internalType": "uint256",
          "name": "tokenId",
          "type": "uint256"
        }
      ],
      "name": "transferFrom",
      "outputs": [],
      "stateMutability": "nonpayable",
      "type": "function"
    },
    {
      "inputs": [
        {
          "internalType": "address",
          "name": "newOwner",
          "type": "address"
        }
      ],
      "name": "transferOwnership",
      "outputs": [],
      "stateMutability": "nonpayable",
      "type": "function"
    }
  ],
  "bytecode": "0x60806040526040518060800160405280604381526020016130ca604391396008908161002b9190610406565b5034801561003857600080fd5b506040518060400160405280601181526020017f437962657270756e6b526f626f744749460000000000000000000000000000008152506040518060400160405280600581526020017f435247494600000000000000000000000000000000000000000000000000000081525081600090816100b49190610406565b5080600190816100c49190610406565b5050506100e36100d86100e860201b60201c565b6100f060201b60201c565b6104d8565b600033905090565b6000600660009054906101000a900473ffffffffffffffffffffffffffffffffffffffff16905081600660006101000a81548173ffffffffffffffffffffffffffffffffffffffff021916908373ffffffffffffffffffffffffffffffffffffffff1602179055508173ffffffffffffffffffffffffffffffffffffffff168173ffffffffffffffffffffffffffffffffffffffff167f8be0079c531659141344cd1fd0a4f28419497f9722a3daafe3b4186f6b6457e060405160405180910390a35050565b600081519050919050565b7f4e487b7100000000000000000000000000000000000000000000000000000000600052604160045260246000fd5b7f4e487b7100000000000000000000000000000000000000000000000000000000600052602260045260246000fd5b6000600282049050600182168061023757607f821691505b60208210810361024a576102496101f0565b5b50919050565b60008190508160005260206000209050919050565b60006020601f8301049050919050565b600082821b905092915050565b6000600883026102b27fffffffffffffffffffffffffffffffffffffffffffffffffffffffffffffffff82610275565b6102bc8683610275565b95508019841693508086168417925050509392505050565b6000819050919050565b6000819050919050565b60006103036102fe6102f9846102d4565b6102de565b6102d4565b9050919050565b6000819050919050565b61031d836102e8565b6103316103298261030a565b848454610282565b825550505050565b600090565b610346610339565b610351818484610314565b505050565b5b818110156103755761036a60008261033e565b600181019050610357565b5050565b601f8211156103ba5761038b81610250565b61039484610265565b810160208510156103a3578190505b6103b76103af85610265565b830182610356565b50505b505050565b600082821c905092915050565b60006103dd600019846008026103bf565b1980831691505092915050565b60006103f683836103cc565b9150826002028217905092915050565b61040f826101b6565b67ffffffffffffffff811115610428576104276101c1565b5b610432825461021f565b61043d828285610379565b600060209050601f831160018114610470576000841561045e578287015190505b61046885826103ea565b8655506104d0565b601f19841661047e86610250565b60005b828110156104a657848901518255600182019150602085019450602081019050610481565b868310156104c357848901516104bf601f8916826103cc565b8355505b6001600288020188555050505b505050505050565b612be3806104e76000396000f3fe608060405234801561001057600080fd5b50600436106101215760003560e01c80636352211e116100ad578063a22cb46511610071578063a22cb465146102f4578063b88d4fde14610310578063c87b56dd1461032c578063e985e9c51461035c578063f2fde38b1461038c57610121565b80636352211e1461024e57806370a082311461027e578063715018a6146102ae5780638da5cb5b146102b857806395d89b41146102d657610121565b806318160ddd116100f457806318160ddd146101c057806323b872dd146101de57806340d097c3146101fa57806342842e0e1461021657806355f804b31461023257610121565b806301ffc9a71461012657806306fdde0314610156578063081812fc14610174578063095ea7b3146101a4575b600080fd5b610140600480360381019061013b919061190e565b6103a8565b60405161014d9190611956565b60405180910390f35b61015e61048a565b60405161016b9190611a01565b60405180910390f35b61018e60048036038101906101899190611a59565b61051c565b60405161019b9190611ac7565b60405180910390f35b6101be60048036038101906101b99190611b0e565b610562565b005b6101c8610679565b6040516101d59190611b5d565b60405180910390f35b6101f860048036038101906101f39190611b78565b61068a565b005b610214600480360381019061020f9190611bcb565b6106ea565b005b610230600480360381019061022b9190611b78565b61075b565b005b61024c60048036038101906102479190611d2d565b61077b565b005b61026860048036038101906102639190611a59565b610796565b6040516102759190611ac7565b60405180910390f35b61029860048036038101906102939190611bcb565b61081c565b6040516102a59190611b5d565b60405180910390f35b6102b66108d3565b005b6102c06108e7565b6040516102cd9190611ac7565b60405180910390f35b6102de610911565b6040516102eb9190611a01565b60405180910390f35b61030e60048036038101906103099190611da2565b6109a3565b005b61032a60048036038101906103259190611e83565b6109b9565b005b61034660048036038101906103419190611a59565b610a1b565b6040516103539190611a01565b60405180910390f35b61037660048036038101906103719190611f06565b610a8d565b6040516103839190611956565b60405180910390f35b6103a660048036038101906103a19190611bcb565b610b21565b005b60007f80ac58cd000000000000000000000000000000000000000000000000000000007bffffffffffffffffffffffffffffffffffffffffffffffffffffffff1916827bffffffffffffffffffffffffffffffffffffffffffffffffffffffff1916148061047357507f5b5e139f000000000000000000000000000000000000000000000000000000007bffffffffffffffffffffffffffffffffffffffffffffffffffffffff1916827bffffffffffffffffffffffffffffffffffffffffffffffffffffffff1916145b80610483575061048282610ba4565b5b9050919050565b60606000805461049990611f75565b80601f01602080910402602001604051908101604052809291908181526020018280546104c590611f75565b80156105125780601f106104e757610100808354040283529160200191610512565b820191906000526020600020905b8154815290600101906020018083116104f557829003601f168201915b5050505050905090565b600061052782610c0e565b6004600083815260200190815260200160002060009054906101000a900473ffffffffffffffffffffffffffffffffffffffff169050919050565b600061056d82610796565b90508073ffffffffffffffffffffffffffffffffffffffff168373ffffffffffffffffffffffffffffffffffffffff16036105dd576040517f08c379a00000000000000000000000000000000000000000000000000000000081526004016105d490612018565b60405180910390fd5b8073ffffffffffffffffffffffffffffffffffffffff166105fc610c59565b73ffffffffffffffffffffffffffffffffffffffff16148061062b575061062a81610625610c59565b610a8d565b5b61066a576040517f08c379a0000000000000000000000000000000000000000000000000000000008152600401610661906120aa565b60405180910390fd5b6106748383610c61565b505050565b60006106856007610d1a565b905090565b61069b610695610c59565b82610d28565b6106da576040517f08c379a00000000000000000000000000000000000000000000000000000000081526004016106d19061213c565b60405180910390fd5b6106e5838383610dbd565b505050565b6106f26110b6565b60006106fe6007610d1a565b905060648110610743576040517f08c379a000000000000000000000000000000000000000000000000000000000815260040161073a906121a8565b60405180910390fd5b61074d6007611134565b610757828261114a565b5050565b610776838383604051806020016040528060008152506109b9565b505050565b6107836110b6565b80600890816107929190612374565b5050565b6000806107a283611168565b9050600073ffffffffffffffffffffffffffffffffffffffff168173ffffffffffffffffffffffffffffffffffffffff1603610813576040517f08c379a000000000000000000000000000000000000000000000000000000000815260040161080a90612492565b60405180910390fd5b80915050919050565b60008073ffffffffffffffffffffffffffffffffffffffff168273ffffffffffffffffffffffffffffffffffffffff160361088c576040517f08c379a000000000000000000000000000000000000000000000000000000000815260040161088390612524565b60405180910390fd5b600360008373ffffffffffffffffffffffffffffffffffffffff1673ffffffffffffffffffffffffffffffffffffffff168152602001908152602001600020549050919050565b6108db6110b6565b6108e560006111a5565b565b6000600660009054906101000a900473ffffffffffffffffffffffffffffffffffffffff16905090565b60606001805461092090611f75565b80601f016020809104026020016040519081016040528092919081815260200182805461094c90611f75565b80156109995780601f1061096e57610100808354040283529160200191610999565b820191906000526020600020905b81548152906001019060200180831161097c57829003601f168201915b5050505050905090565b6109b56109ae610c59565b838361126b565b5050565b6109ca6109c4610c59565b83610d28565b610a09576040517f08c379a0000000000000000000000000000000000000000000000000000000008152600401610a009061213c565b60405180910390fd5b610a15848484846113d7565b50505050565b6060610a2682611433565b610a65576040517f08c379a0000000000000000000000000000000000000000000000000000000008152600401610a5c906125b6565b60405180910390fd5b6008604051602001610a7791906126b0565b6040516020818303038152906040529050919050565b6000600560008473ffffffffffffffffffffffffffffffffffffffff1673ffffffffffffffffffffffffffffffffffffffff16815260200190815260200160002060008373ffffffffffffffffffffffffffffffffffffffff1673ffffffffffffffffffffffffffffffffffffffff16815260200190815260200160002060009054906101000a900460ff16905092915050565b610b296110b6565b600073ffffffffffffffffffffffffffffffffffffffff168173ffffffffffffffffffffffffffffffffffffffff1603610b98576040517f08c379a0000000000000000000000000000000000000000000000000000000008152600401610b8f90612744565b60405180910390fd5b610ba1816111a5565b50565b60007f01ffc9a7000000000000000000000000000000000000000000000000000000007bffffffffffffffffffffffffffffffffffffffffffffffffffffffff1916827bffffffffffffffffffffffffffffffffffffffffffffffffffffffff1916149050919050565b610c1781611433565b610c56576040517f08c379a0000000000000000000000000000000000000000000000000000000008152600401610c4d90612492565b60405180910390fd5b50565b600033905090565b816004600083815260200190815260200160002060006101000a81548173ffffffffffffffffffffffffffffffffffffffff021916908373ffffffffffffffffffffffffffffffffffffffff160217905550808273ffffffffffffffffffffffffffffffffffffffff16610cd483610796565b73ffffffffffffffffffffffffffffffffffffffff167f8c5be1e5ebec7d5bd14f71427d1e84f3dd0314c0f7b2291e5b200ac8c7c3b92560405160405180910390a45050565b600081600001549050919050565b600080610d3483610796565b90508073ffffffffffffffffffffffffffffffffffffffff168473ffffffffffffffffffffffffffffffffffffffff161480610d765750610d758185610a8d565b5b80610db457508373ffffffffffffffffffffffffffffffffffffffff16610d9c8461051c565b73ffffffffffffffffffffffffffffffffffffffff16145b91505092915050565b8273ffffffffffffffffffffffffffffffffffffffff16610ddd82610796565b73ffffffffffffffffffffffffffffffffffffffff1614610e33576040517f08c379a0000000000000000000000000000000000000000000000000000000008152600401610e2a906127d6565b60405180910390fd5b600073ffffffffffffffffffffffffffffffffffffffff168273ffffffffffffffffffffffffffffffffffffffff1603610ea2576040517f08c379a0000000000000000000000000000000000000000000000000000000008152600401610e9990612868565b60405180910390fd5b610eaf8383836001611474565b8273ffffffffffffffffffffffffffffffffffffffff16610ecf82610796565b73ffffffffffffffffffffffffffffffffffffffff1614610f25576040517f08c379a0000000000000000000000000000000000000000000000000000000008152600401610f1c906127d6565b60405180910390fd5b6004600082815260200190815260200160002060006101000a81549073ffffffffffffffffffffffffffffffffffffffff02191690556001600360008573ffffffffffffffffffffffffffffffffffffffff1673ffffffffffffffffffffffffffffffffffffffff168152602001908152602001600020600082825403925050819055506001600360008473ffffffffffffffffffffffffffffffffffffffff1673ffffffffffffffffffffffffffffffffffffffff16815260200190815260200160002060008282540192505081905550816002600083815260200190815260200160002060006101000a81548173ffffffffffffffffffffffffffffffffffffffff021916908373ffffffffffffffffffffffffffffffffffffffff160217905550808273ffffffffffffffffffffffffffffffffffffffff168473ffffffffffffffffffffffffffffffffffffffff167fddf252ad1be2c89b69c2b068fc378daa952ba7f163c4a11628f55a4df523b3ef60405160405180910390a46110b1838383600161147a565b505050565b6110be610c59565b73ffffffffffffffffffffffffffffffffffffffff166110dc6108e7565b73ffffffffffffffffffffffffffffffffffffffff1614611132576040517f08c379a0000000000000000000000000000000000000000000000000000000008152600401611129906128d4565b60405180910390fd5b565b6001816000016000828254019250508190555050565b611164828260405180602001604052806000815250611480565b5050565b60006002600083815260200190815260200160002060009054906101000a900473ffffffffffffffffffffffffffffffffffffffff169050919050565b6000600660009054906101000a900473ffffffffffffffffffffffffffffffffffffffff16905081600660006101000a81548173ffffffffffffffffffffffffffffffffffffffff021916908373ffffffffffffffffffffffffffffffffffffffff1602179055508173ffffffffffffffffffffffffffffffffffffffff168173ffffffffffffffffffffffffffffffffffffffff167f8be0079c531659141344cd1fd0a4f28419497f9722a3daafe3b4186f6b6457e060405160405180910390a35050565b8173ffffffffffffffffffffffffffffffffffffffff168373ffffffffffffffffffffffffffffffffffffffff16036112d9576040517f08c379a00000000000000000000000000000000000000000000000000000000081526004016112d090612940565b60405180910390fd5b80600560008573ffffffffffffffffffffffffffffffffffffffff1673ffffffffffffffffffffffffffffffffffffffff16815260200190815260200160002060008473ffffffffffffffffffffffffffffffffffffffff1673ffffffffffffffffffffffffffffffffffffffff16815260200190815260200160002060006101000a81548160ff0219169083151502179055508173ffffffffffffffffffffffffffffffffffffffff168373ffffffffffffffffffffffffffffffffffffffff167f17307eab39ab6107e8899845ad3d59bd9653f200f220920489ca2b5937696c31836040516113ca9190611956565b60405180910390a3505050565b6113e2848484610dbd565b6113ee848484846114db565b61142d576040517f08c379a0000000000000000000000000000000000000000000000000000000008152600401611424906129d2565b60405180910390fd5b50505050565b60008073ffffffffffffffffffffffffffffffffffffffff1661145583611168565b73ffffffffffffffffffffffffffffffffffffffff1614159050919050565b50505050565b50505050565b61148a8383611662565b61149760008484846114db565b6114d6576040517f08c379a00000000000000000000000000000000000000000000000000000000081526004016114cd906129d2565b60405180910390fd5b505050565b60006114fc8473ffffffffffffffffffffffffffffffffffffffff1661187f565b15611655578373ffffffffffffffffffffffffffffffffffffffff1663150b7a02611525610c59565b8786866040518563ffffffff1660e01b81526004016115479493929190612a47565b6020604051808303816000875af192505050801561158357506040513d601f19601f820116820180604052508101906115809190612aa8565b60015b611605573d80600081146115b3576040519150601f19603f3d011682016040523d82523d6000602084013e6115b8565b606091505b5060008151036115fd576040517f08c379a00000000000000000000000000000000000000000000000000000000081526004016115f4906129d2565b60405180910390fd5b805181602001fd5b63150b7a0260e01b7bffffffffffffffffffffffffffffffffffffffffffffffffffffffff1916817bffffffffffffffffffffffffffffffffffffffffffffffffffffffff19161491505061165a565b600190505b949350505050565b600073ffffffffffffffffffffffffffffffffffffffff168273ffffffffffffffffffffffffffffffffffffffff16036116d1576040517f08c379a00000000000000000000000000000000000000000000000000000000081526004016116c890612b21565b60405180910390fd5b6116da81611433565b1561171a576040517f08c379a000000000000000000000000000000000000000000000000000000000815260040161171190612b8d565b60405180910390fd5b611728600083836001611474565b61173181611433565b15611771576040517f08c379a000000000000000000000000000000000000000000000000000000000815260040161176890612b8d565b60405180910390fd5b6001600360008473ffffffffffffffffffffffffffffffffffffffff1673ffffffffffffffffffffffffffffffffffffffff16815260200190815260200160002060008282540192505081905550816002600083815260200190815260200160002060006101000a81548173ffffffffffffffffffffffffffffffffffffffff021916908373ffffffffffffffffffffffffffffffffffffffff160217905550808273ffffffffffffffffffffffffffffffffffffffff16600073ffffffffffffffffffffffffffffffffffffffff167fddf252ad1be2c89b69c2b068fc378daa952ba7f163c4a11628f55a4df523b3ef60405160405180910390a461187b60008383600161147a565b5050565b6000808273ffffffffffffffffffffffffffffffffffffffff163b119050919050565b6000604051905090565b600080fd5b600080fd5b60007fffffffff0000000000000000000000000000000000000000000000000000000082169050919050565b6118eb816118b6565b81146118f657600080fd5b50565b600081359050611908816118e2565b92915050565b600060208284031215611924576119236118ac565b5b6000611932848285016118f9565b91505092915050565b60008115159050919050565b6119508161193b565b82525050565b600060208201905061196b6000830184611947565b92915050565b600081519050919050565b600082825260208201905092915050565b60005b838110156119ab578082015181840152602081019050611990565b60008484015250505050565b6000601f19601f8301169050919050565b60006119d382611971565b6119dd818561197c565b93506119ed81856020860161198d565b6119f6816119b7565b840191505092915050565b60006020820190508181036000830152611a1b81846119c8565b905092915050565b6000819050919050565b611a3681611a23565b8114611a4157600080fd5b50565b600081359050611a5381611a2d565b92915050565b600060208284031215611a6f57611a6e6118ac565b5b6000611a7d84828501611a44565b91505092915050565b600073ffffffffffffffffffffffffffffffffffffffff82169050919050565b6000611ab182611a86565b9050919050565b611ac181611aa6565b82525050565b6000602082019050611adc6000830184611ab8565b92915050565b611aeb81611aa6565b8114611af657600080fd5b50565b600081359050611b0881611ae2565b92915050565b60008060408385031215611b2557611b246118ac565b5b6000611b3385828601611af9565b9250506020611b4485828601611a44565b9150509250929050565b611b5781611a23565b82525050565b6000602082019050611b726000830184611b4e565b92915050565b600080600060608486031215611b9157611b906118ac565b5b6000611b9f86828701611af9565b9350506020611bb086828701611af9565b9250506040611bc186828701611a44565b9150509250925092565b600060208284031215611be157611be06118ac565b5b6000611bef84828501611af9565b91505092915050565b600080fd5b600080fd5b7f4e487b7100000000000000000000000000000000000000000000000000000000600052604160045260246000fd5b611c3a826119b7565b810181811067ffffffffffffffff82111715611c5957611c58611c02565b5b80604052505050565b6000611c6c6118a2565b9050611c788282611c31565b919050565b600067ffffffffffffffff821115611c9857611c97611c02565b5b611ca1826119b7565b9050602081019050919050565b82818337600083830152505050565b6000611cd0611ccb84611c7d565b611c62565b905082815260208101848484011115611cec57611ceb611bfd565b5b611cf7848285611cae565b509392505050565b600082601f830112611d1457611d13611bf8565b5b8135611d24848260208601611cbd565b91505092915050565b600060208284031215611d4357611d426118ac565b5b600082013567ffffffffffffffff811115611d6157611d606118b1565b5b611d6d84828501611cff565b91505092915050565b611d7f8161193b565b8114611d8a57600080fd5b50565b600081359050611d9c81611d76565b92915050565b60008060408385031215611db957611db86118ac565b5b6000611dc785828601611af9565b9250506020611dd885828601611d8d565b9150509250929050565b600067ffffffffffffffff821115611dfd57611dfc611c02565b5b611e06826119b7565b9050602081019050919050565b6000611e26611e2184611de2565b611c62565b905082815260208101848484011115611e4257611e41611bfd565b5b611e4d848285611cae565b509392505050565b600082601f830112611e6a57611e69611bf8565b5b8135611e7a848260208601611e13565b91505092915050565b60008060008060808587031215611e9d57611e9c6118ac565b5b6000611eab87828801611af9565b9450506020611ebc87828801611af9565b9350506040611ecd87828801611a44565b925050606085013567ffffffffffffffff811115611eee57611eed6118b1565b5b611efa87828801611e55565b91505092959194509250565b60008060408385031215611f1d57611f1c6118ac565b5b6000611f2b85828601611af9565b9250506020611f3c85828601611af9565b9150509250929050565b7f4e487b7100000000000000000000000000000000000000000000000000000000600052602260045260246000fd5b60006002820490506001821680611f8d57607f821691505b602082108103611fa057611f9f611f46565b5b50919050565b7f4552433732313a20617070726f76616c20746f2063757272656e74206f776e6560008201527f7200000000000000000000000000000000000000000000000000000000000000602082015250565b600061200260218361197c565b915061200d82611fa6565b604082019050919050565b6000602082019050818103600083015261203181611ff5565b9050919050565b7f4552433732313a20617070726f76652063616c6c6572206973206e6f7420746f60008201527f6b656e206f776e6572206f7220617070726f76656420666f7220616c6c000000602082015250565b6000612094603d8361197c565b915061209f82612038565b604082019050919050565b600060208201905081810360008301526120c381612087565b9050919050565b7f4552433732313a2063616c6c6572206973206e6f7420746f6b656e206f776e6560008201527f72206f7220617070726f76656400000000000000000000000000000000000000602082015250565b6000612126602d8361197c565b9150612131826120ca565b604082019050919050565b6000602082019050818103600083015261215581612119565b9050919050565b7f4d617820737570706c79206f6620313030204e46547320726561636865640000600082015250565b6000612192601e8361197c565b915061219d8261215c565b602082019050919050565b600060208201905081810360008301526121c181612185565b9050919050565b60008190508160005260206000209050919050565b60006020601f8301049050919050565b600082821b905092915050565b60006008830261222a7fffffffffffffffffffffffffffffffffffffffffffffffffffffffffffffffff826121ed565b61223486836121ed565b95508019841693508086168417925050509392505050565b6000819050919050565b600061227161226c61226784611a23565b61224c565b611a23565b9050919050565b6000819050919050565b61228b83612256565b61229f61229782612278565b8484546121fa565b825550505050565b600090565b6122b46122a7565b6122bf818484612282565b505050565b5b818110156122e3576122d86000826122ac565b6001810190506122c5565b5050565b601f821115612328576122f9816121c8565b612302846121dd565b81016020851015612311578190505b61232561231d856121dd565b8301826122c4565b50505b505050565b600082821c905092915050565b600061234b6000198460080261232d565b1980831691505092915050565b6000612364838361233a565b9150826002028217905092915050565b61237d82611971565b67ffffffffffffffff81111561239657612395611c02565b5b6123a08254611f75565b6123ab8282856122e7565b600060209050601f8311600181146123de57600084156123cc578287015190505b6123d68582612358565b86555061243e565b601f1984166123ec866121c8565b60005b82811015612414578489015182556001820191506020850194506020810190506123ef565b86831015612431578489015161242d601f89168261233a565b8355505b6001600288020188555050505b505050505050565b7f4552433732313a20696e76616c696420746f6b656e2049440000000000000000600082015250565b600061247c60188361197c565b915061248782612446565b602082019050919050565b600060208201905081810360008301526124ab8161246f565b9050919050565b7f4552433732313a2061646472657373207a65726f206973206e6f74206120766160008201527f6c6964206f776e65720000000000000000000000000000000000000000000000602082015250565b600061250e60298361197c565b9150612519826124b2565b604082019050919050565b6000602082019050818103600083015261253d81612501565b9050919050565b7f4552433732314d657461646174613a2055524920717565727920666f72206e6f60008201527f6e6578697374656e7420746f6b656e0000000000000000000000000000000000602082015250565b60006125a0602f8361197c565b91506125ab82612544565b604082019050919050565b600060208201905081810360008301526125cf81612593565b9050919050565b600081905092915050565b600081546125ee81611f75565b6125f881866125d6565b9450600182166000811461261357600181146126285761265b565b60ff198316865281151582028601935061265b565b612631856121c8565b60005b8381101561265357815481890152600182019150602081019050612634565b838801955050505b50505092915050565b7f6d657461646174612e6a736f6e00000000000000000000000000000000000000600082015250565b600061269a600d836125d6565b91506126a582612664565b600d82019050919050565b60006126bc82846125e1565b91506126c78261268d565b915081905092915050565b7f4f776e61626c653a206e6577206f776e657220697320746865207a65726f206160008201527f6464726573730000000000000000000000000000000000000000000000000000602082015250565b600061272e60268361197c565b9150612739826126d2565b604082019050919050565b6000602082019050818103600083015261275d81612721565b9050919050565b7f4552433732313a207472616e736665722066726f6d20696e636f72726563742060008201527f6f776e6572000000000000000000000000000000000000000000000000000000602082015250565b60006127c060258361197c565b91506127cb82612764565b604082019050919050565b600060208201905081810360008301526127ef816127b3565b9050919050565b7f4552433732313a207472616e7366657220746f20746865207a65726f2061646460008201527f7265737300000000000000000000000000000000000000000000000000000000602082015250565b600061285260248361197c565b915061285d826127f6565b604082019050919050565b6000602082019050818103600083015261288181612845565b9050919050565b7f4f776e61626c653a2063616c6c6572206973206e6f7420746865206f776e6572600082015250565b60006128be60208361197c565b91506128c982612888565b602082019050919050565b600060208201905081810360008301526128ed816128b1565b9050919050565b7f4552433732313a20617070726f766520746f2063616c6c657200000000000000600082015250565b600061292a60198361197c565b9150612935826128f4565b602082019050919050565b600060208201905081810360008301526129598161291d565b9050919050565b7f4552433732313a207472616e7366657220746f206e6f6e20455243373231526560008201527f63656976657220696d706c656d656e7465720000000000000000000000000000602082015250565b60006129bc60328361197c565b91506129c782612960565b604082019050919050565b600060208201905081810360008301526129eb816129af565b9050919050565b600081519050919050565b600082825260208201905092915050565b6000612a19826129f2565b612a2381856129fd565b9350612a3381856020860161198d565b612a3c816119b7565b840191505092915050565b6000608082019050612a5c6000830187611ab8565b612a696020830186611ab8565b612a766040830185611b4e565b8181036060830152612a888184612a0e565b905095945050505050565b600081519050612aa2816118e2565b92915050565b600060208284031215612abe57612abd6118ac565b5b6000612acc84828501612a93565b91505092915050565b7f4552433732313a206d696e7420746f20746865207a65726f2061646472657373600082015250565b6000612b0b60208361197c565b9150612b1682612ad5565b602082019050919050565b60006020820190508181036000830152612b3a81612afe565b9050919050565b7f4552433732313a20746f6b656e20616c7265616479206d696e74656400000000600082015250565b6000612b77601c8361197c565b9150612b8282612b41565b602082019050919050565b60006020820190508181036000830152612ba681612b6a565b905091905056fea2646970667358221220f5cb6b66d4a0069bba52e442bb45068b64be8b76d46945bcefee3501b677641164736f6c634300081c0033697066733a2f2f62616679626569656936653673777a7a6c786536697674347578337375626f327376786b6c776f70656c6576726a6669353465366d326e336161652f",
  "linkReferences": {},
  "deployedLinkReferences": {}
}